:100000000C9435000C945D000C945D000C945D0024
:100010000C9417010C945D000C945D000C945D0031
:100020000C945D000C945D000C945D000C945D00DC
:100030000C945D000C9415010C949C020C945D00D2
:100040000C945D000C945D000C945D000C945D00BC
:100050000C945D000C945D000C945D000C945D00AC
:100060000C945D000C945D006C0311241FBECFEF57
:10007000D8E0DEBFCDBF11E0A0E0B1E0E6E0F7E000
:1000800002C005900D92AE30B107D9F721E0AEE085
:10009000B1E001C01D92AF31B207E1F710E0C5E356
:1000A000D0E004C02197FE010E947B03C433D10736
:1000B000C9F70E94D7000C9481030C94000077C00C
:1000C000000000000000B3C0000000000000ADC050
:1000D0000000000000000000000000000000000020
:1000E0000000000000000000000000000000000010
:1000F0000000000000000000000000000000000000
:1001000000000000000000000000000000000000EF
:1001100000000000000000000000000000000000DF
:1001200000000000000000000000000000000000CF
:1001300000000000000000000000000000000000BF
:1001400000000000000000000000000000000000AF
:10015000000000000000000000000000000000009F
:10016000000000000000000000000000000000008F
:10017000000000000000000000000000000000007F
:10018000000000000000000000000000000000006F
:10019000000000000000000000000000000000005F
:1001A000000000000000000000000000000003D27A
:1001B000FDD104E00AB900E05A98F7E4F7B9F095E8
:1001C000F6B9F2E0F0936800F8E3F0936C00F4E025
:1001D000F0938100F1E0F0936F0020E07894112714
:1001E000DD27CC276DD2812F00D200008D2F22D2A7
:1001F00000008C2F44D20000552700FD20C001FDD7
:1002000018C0FBCF503021F4CB3319F0C3950895BB
:100210000895CC27DB3311F0D3950895DD271731EE
:1002200011F0139508951127089502601895016043
:1002300018956CD0E7DF0D7F5030F9F64AC06CD0CE
:100240000E7F359B05C0349B18C0339B2BC041C02B
:100250005395543009F45527513039F0503009F096
:10026000CCCFF1E0F0936F00C8CFF0E0F0936F00D7
:10027000F0938500F0938400C0CF513029F4C395EA
:10028000CC3339F5CC2725C0523029F4D395DC3353
:1002900001F5DD271EC05330E1F413951831C9F480
:1002A00010E017C0513031F4C03011F4CBE311C06D
:1002B000CA950FC0523031F4D03011F4DBE309C0DD
:1002C000DA9507C0533029F4103011F417E101C05A
:1002D0001A95F0E0F0936C00F3D1812F000085D1E6
:1002E000533071F08D2F0000A5D1523059F08C2F72
:1002F000C6D1513049F00000F8E3F0936C007DCF97
:10030000E4D1F0CFE2D1F3CFE0D1F5CF5A9B02C0D8
:100310005A9808955A9A089570E280E49AE09A955E
:10032000F1F78A95D9F77A95C1F708950895CF9393
:10033000DF93EC0160E089810E94B50281E090E0EA
:100340000E94730361E089810E94B50281E090E020
:100350000E94730360E089810E94B50284E690E008
:100360000E947303DF91CF910895FF920F931F9323
:10037000CF93DF938C01F62EC0E0D0E0C430D105DE
:100380008CF46F2D70E00C2E02C0759567950A9461
:10039000E2F76170F801EC0FFD1F82810E94B50247
:1003A0002196ECCFC8010E949701DF91CF911F9158
:1003B0000F91FF9008951F93CF93DF93EC01162FB9
:1003C000642F88810E94B502612F70E07595679552
:1003D000759567957595679575956795CE010E949A
:1003E000B501612FCE010E94B501DF91CF911F9120
:1003F0000895605D41E00E94DB0181E008950F9364
:100400001F93CF93DF938C01EB016881662331F05A
:1004100041E0C8010E94DB012196F7CF81E0DF9126
:10042000CF911F910F910895FC016781262F2460C1
:1004300027836C6040E00E94DB01089540E061E0AA
:100440000E94DB0180ED97E00E9473030895CF9333
:10045000DF93EC014A871B8680E48C8780E593EC70
:100460000E94730360E088810E94B50260E0898188
:100470000E94B50263E0CE010E94B50184E991E1DA
:100480000E94730363E0CE010E94B50184E991E10B
:100490000E94730363E0CE010E94B50186E990E0FB
:1004A0000E94730362E0CE010E94B5016E8160621A
:1004B00040E0CE010E94DB0184E08F83CE010E94E8
:1004C0001402CE010E941E0282E0888740E066E0AE
:1004D000CE010E94DB01DF91CF910895FC0180E203
:1004E000808380E1818381E0828382E0838384E072
:1004F000848388E08583868320E042E060E1CF0149
:100500000E9427020895109264001092610013BEA9
:1005100015BE089515BE80E88FBF80E0089583E082
:1005200087BD18BC16BC13BC82E084BD91E095BDAC
:1005300080936E0080E008951F920F920FB60F9285
:1005400011248F939F9380911D0190911E0101961C
:1005500090931E0180931D0181E085BB9F918F9137
:100560000F900FBE0F901F901895611105C095B1A7
:100570008095892385B9089595B1892B85B908950A
:10058000019739F46F3F7F4F21F48EE091E00E9494
:10059000960108958FE384B917B884E08AB915B835
:1005A00018B81BB813B816B819B808958EE091E0C2
:1005B0000E946E0208950E9483020E94CA020E9455
:1005C0008A020E948F0208959DEC899F912D11242B
:1005D000969596959695FB019183990F292F220F59
:1005E000220F920F891B808308951F93CF93DF936F
:1005F00000D0CDB7DEB7182F65E071E08EE091E056
:100600000E94FF0119821A82BE016F5F7F4F812F06
:100610000E94E4026A818EE091E00E94F901698102
:100620008EE091E00E94F9010F900F90DF91CF9141
:100630001F9108951F93CF93DF9300D0CDB7DEB7FE
:10064000182F19821A826AE071E08EE091E00E9410
:10065000FF01BE016F5F7F4F812F0E94E4026A811C
:100660008EE091E00E94F90169818EE091E00E94A4
:10067000F9010F900F90DF91CF911F910895CF93C3
:10068000DF9300D0CDB7DEB719821A82BE016F5F4B
:100690007F4F0E94E4026AE071E08EE091E00E94E8
:1006A000FF016A818EE091E00E94F90169818EE08C
:1006B00091E00E94F9010F900F90DF91CF91089582
:1006C0008EE091E00E941E0208956CE071E08EE0E1
:1006D00091E00E94FF0108956FEF7FEF81E090E0CD
:1006E0000E94C002089520911D0130911E0128171B
:1006F0003907C8F30895EE0FFF1F0590F491E02D20
:060700000994F894FFCFFC
:0E070600544553540020202020003A003C00AF
:00000001FF
