:100000000C9435000C945D000C945D000C945D0024
:100010000C94E6000C945D000C945D000C945D0063
:100020000C945D000C945D000C945D000C945D00DC
:100030000C945D000C945D000C94F6000C945D0033
:100040000C945D000C945D000C945D000C945D00BC
:100050000C945D000C945D000C945D000C945D00AC
:100060000C945D000C945D00190111241FBECFEFAC
:10007000D8E0DEBFCDBF11E0A0E0B1E0E0E5F2E006
:1000800002C005900D92A030B107D9F721E0A0E0A1
:10009000B1E001C01D92A131B207E1F710E0C5E364
:1000A000D0E004C02197FE010E942001C433D10793
:1000B000C9F70E94D7000C9426010C94000077C069
:1000C00000000000000082C00000000000000000EE
:1000D0000000000000000000000000000000000020
:1000E0000000000000000000000000000000000010
:1000F0000000000000000000000000000000000000
:1001000000000000000000000000000000000000EF
:1001100000000000000000000000000000000000DF
:1001200000000000000000000000000000000000CF
:1001300000000000000000000000000000000000BF
:1001400000000000000000000000000000000000AF
:10015000000000000000000000000000000000009F
:10016000000000000000000000000000000000008F
:10017000000000000000000000000000000000007F
:10018000000000000000000000000000000000006F
:10019000000000000000000000000000000000005F
:1001A0000000000000000000000000000000A7E4C4
:1001B000A7B9A095A6B9A2E0A0936800A8E3A09370
:1001C0006C00AFEFA4B9A5B97894FFCFAEE0A5B9A4
:1001D000359B05C0349B05C0339B05C018952998F5
:1001E00018952A9818952B98189508951F920F9294
:1001F0000FB60F9211248F939F9380910F019091CE
:10020000100101969093100180930F0181E085BB4E
:100210009F918F910F900FBE0F901F90189501978F
:1002200039F46F3F7F4F21F480E091E00E94F500A8
:1002300008956FEF7FEF81E090E00E940F01089535
:10024000EE0FFF1F0590F491E02D0994F894FFCF75
:00000001FF
