:100000000C9435000C945D000C945D000C945D0024
:100010000C9407010C945D000C945D000C945D0041
:100020000C945D000C945D000C945D000C945D00DC
:100030000C945D000C945D000C945C020C945D00CB
:100040000C945D000C945D000C945D000C945D00BC
:100050000C945D000C945D000C945D000C945D00AC
:100060000C945D000C945D00210311241FBECFEFA2
:10007000D8E0DEBFCDBF11E0A0E0B1E0E0E7F6E000
:1000800002C005900D92AC30B107D9F721E0ACE089
:10009000B1E001C01D92AD31B207E1F710E0C5E358
:1000A000D0E004C02197FE010E943003C433D10781
:1000B000C9F70E94D7000C9436030C94000077C057
:1000C000000000000000A3C00000000000000000CD
:1000D0000000000000000000000000000000000020
:1000E0000000000000000000000000000000000010
:1000F0000000000000000000000000000000000000
:1001000000000000000000000000000000000000EF
:1001100000000000000000000000000000000000DF
:1001200000000000000000000000000000000000CF
:1001300000000000000000000000000000000000BF
:1001400000000000000000000000000000000000AF
:10015000000000000000000000000000000000009F
:10016000000000000000000000000000000000008F
:10017000000000000000000000000000000000007F
:10018000000000000000000000000000000000006F
:10019000000000000000000000000000000000005F
:1001A0000000000000000000000000000000C3D1BB
:1001B000BDD104E00AB900E05A98F7E4F7B9F09528
:1001C000F6B9F2E0F0936800F8E3F0936C007894ED
:1001D0001127DD27CC2730D2812FC7D100008D2FEA
:1001E000EFD100008C2F0DD200005527FFCFCB336D
:1001F00011F0C3950895CC27DB3311F0D395089502
:10020000DD27173111F0139508951127089544D073
:10021000359B05C0349B08C0339B19C01895539576
:10022000533009F455271895503031F4C3952FD029
:10023000CC3311F5CC2720C0513029F4D395DC33D1
:10024000D9F4DD2719C013951831B1F410E05030FE
:1002500031F4C03011F4CBE30FC0CA950DC051305A
:1002600031F4D03011F4DBE307C0DA9505C010306B
:1002700011F417E101C01A95DFD1812F000075D16B
:100280008D2F00009DD18C2FBCD10000189511F04E
:100290005A9808955A9A089570E280E49AE09A95DF
:1002A000F1F78A95D9F77A95C1F708950895CF9314
:1002B000DF93EC0160E089810E94750281E090E0AB
:1002C0000E94280361E089810E94750281E090E02C
:1002D0000E94280360E089810E94750284E690E014
:1002E0000E942803DF91CF910895FF920F931F93EF
:1002F000CF93DF938C01F62EC0E0D0E0C430D1055F
:100300008CF46F2D70E00C2E02C0759567950A94E1
:10031000E2F76170F801EC0FFD1F82810E94750207
:100320002196ECCFC8010E945701DF91CF911F9118
:100330000F91FF9008951F93CF93DF93EC01162F39
:10034000642F88810E947502612F70E07595679512
:10035000759567957595679575956795CE010E941A
:100360007501612FCE010E947501DF91CF911F9120
:100370000895605D41E00E949B0181E008950F9324
:100380001F93CF93DF938C01EB016881662331F0DB
:1003900041E0C8010E949B012196F7CF81E0DF91E7
:1003A000CF911F910F910895FC016781262F246042
:1003B00027836C6040E00E949B01089540E061E06B
:1003C0000E949B0180ED97E00E9428030895CF933F
:1003D000DF93EC014A871B8680E48C8780E593ECF1
:1003E0000E94280360E088810E94750260E0898194
:1003F0000E94750263E0CE010E94750184E991E1DB
:100400000E94280363E0CE010E94750184E991E116
:100410000E94280363E0CE010E94750186E990E006
:100420000E94280362E0CE010E9475016E81606225
:1004300040E0CE010E949B0184E08F83CE010E94A8
:10044000D401CE010E94DE0182E0888740E066E0B0
:10045000CE010E949B01DF91CF910895FC0180E2C3
:10046000808380E1818381E0828382E0838384E0F2
:10047000848388E08583868320E042E060E1CF01C9
:100480000E94E7010895109264001092610013BE6B
:1004900015BE089515BE80E88FBF80E0089583E003
:1004A00087BD18BC16BC13BC82E084BD91E095BD2D
:1004B00080936E0080E008951F920F920FB60F9206
:1004C00011248F939F9380911B0190911C010196A1
:1004D00090931C0180931B0181E085BB9F918F91BC
:1004E0000F900FBE0F901F901895611105C095B128
:1004F0008095892385B9089595B1892B85B908958B
:10050000019739F46F3F7F4F21F48CE091E00E9416
:10051000560108958FE384B917B884E08AB915B8F5
:1005200018B81BB813B816B819B808958CE091E044
:100530000E942E0208950E9443020E948A020E9495
:100540004A020E944F0208959DEC899F912D11242B
:10055000969596959695FB019183990F292F220FD9
:10056000220F920F891B808308951F93CF93DF93EF
:1005700000D0CDB7DEB7182F65E071E08CE091E0D8
:100580000E94BF0119821A82BE016F5F7F4F812FC7
:100590000E94A4026A818CE091E00E94B901698105
:1005A0008CE091E00E94B9016AE071E08CE091E09A
:1005B0000E94BF010F900F90DF91CF911F9108957E
:1005C000CF93DF9300D0CDB7DEB719821A82BE0178
:1005D0006F5F7F4F0E94A4026A818CE091E00E94CD
:1005E000B90169818CE091E00E94B9016AE071E093
:1005F0008CE091E00E94BF010F900F90DF91CF91AE
:100600000895CF93DF9300D0CDB7DEB719821A8259
:10061000BE016F5F7F4F0E94A4026A818CE091E06F
:100620000E94B90169818CE091E00E94B9010F90AC
:100630000F90DF91CF9108958CE091E00E94DE0150
:1006400008956FEF7FEF81E090E00E9480020895AF
:1006500020911B0130911C0128173907C8F3089518
:10066000EE0FFF1F0590F491E02D0994F894FFCF51
:0C067000544553540020202020003A0084
:00000001FF
