S0130000707362436C6F636B4743432E7372656313
S11300000C9435000C945D000C945D000C945D0020
S11300100C9442010C945D000C945D000C945D0002
S11300200C945D000C945D000C945D000C945D00D8
S11300300C945D000C9440010C94D0020C945D006F
S11300400C945D000C945D000C945D000C945D00B8
S11300500C945D000C945D000C945D000C945D00A8
S11300600C945D000C945D00A00311241FBECFEF1F
S1130070D8E0DEBFCDBF11E0A0E0B1E0E6E7F7E0F5
S113008002C005900D92AE30B107D9F721E0AEE081
S1130090B1E001C01D92AF31B207E1F710E0C5E352
S11300A0D0E004C02197FE010E94B303C433D107FA
S11300B0C9F70E94D7000C94B9030C94000077C0D0
S11300C0000000000000DEC0000000000000D8C0F6
S11300D0000000000000000000000000000000001C
S11300E0000000000000000000000000000000000C
S11300F000000000000000000000000000000000FC
S113010000000000000000000000000000000000EB
S113011000000000000000000000000000000000DB
S113012000000000000000000000000000000000CB
S113013000000000000000000000000000000000BB
S113014000000000000000000000000000000000AB
S1130150000000000000000000000000000000009B
S1130160000000000000000000000000000000008B
S1130170000000000000000000000000000000007B
S1130180000000000000000000000000000000006B
S1130190000000000000000000000000000000005B
S11301A0000000000000000000000000000037D242
S11301B031D204E00AB900E05A98F7E4F7B9F095AF
S11301C0F6B9F2E0F0936800F8E3F0936C00F4E021
S11301D0F0938100F1E0F0936F00F0E0F09385007C
S11301E0F093840020E078941127DD27CC279CD25B
S11301F0812F2FD200008D2F51D200008C2F73D26B
S11302000000552700FD48C001FD3EC0FBCF503023
S113021021F0543011F000C00895CB3311F0C39590
S11302200895CC27DB3311F0D3950895DD271731DA
S113023011F01395089511270895C03011F0CA954F
S113024015C0D03019F0CBE3DA9510C0103021F08E
S1130250DBE3CBE31A950AC0CC27DD27112701D0B5
S113026008955A9AF0E0F0936F000895103031F435
S1130270D03021F4C03011F4F4DF08955A98089571
S11302800260189501601895553011F0C0DF02C066
S1130290D4DF00C00D7F4FC073D00E7F359B05C0E7
S11302A0349B1DC0339B30C046C05395563009F46F
S11302B05527513061F0503029F0543019F0553041
S11302C009F0A0CF5A98F1E0F0936F009BCFF0E0D3
S11302D0F0936F00F0938500F093840093CF513036
S11302E029F4C395CC3339F5CC2725C0523029F4F1
S11302F0D395DC3301F5DD271EC05330E1F41395AB
S11303001831C9F410E017C0513031F4C03011F481
S1130310CBE311C0CA950FC0523031F4D03011F480
S1130320DBE309C0DA9507C0533029F4103011F427
S113033017E101C01A95F0E0F0936C00F0E0F4D1FD
S1130340812F000086D1533079F08D2F0000A6D183
S1130350523061F08C2FC7D1513051F00000F8E3D6
S1130360F0936C00F1E04ECFE4D1EFCFE2D1F2CFC5
S1130370E0D1F4CF5A9B02C05A9808955A9A08952E
S113038070E280E49AE09A95F1F78A95D9F77A9524
S1130390C1F708950895CF93DF93EC0160E089815C
S11303A00E94E90281E090E00E94A70361E0898154
S11303B00E94E90281E090E00E94A70360E0898145
S11303C00E94E90284E690E00E94A703DF91CF91A6
S11303D00895FF920F931F93CF93DF938C01F62E12
S11303E0C0E0D0E0C430D1058CF46F2D70E00C2E49
S11303F002C0759567950A94E2F76170F801EC0FF5
S1130400FD1F82810E94E9022196ECCFC8010E945F
S1130410CB01DF91CF911F910F91FF9008951F930E
S1130420CF93DF93EC01162F642F88810E94E90299
S1130430612F70E0759567957595679575956795C6
S113044075956795CE010E94E901612FCE010E9446
S1130450E901DF91CF911F910895605D41E00E9411
S11304600F0281E008950F931F93CF93DF938C01C4
S1130470EB016881662331F041E0C8010E940F025C
S11304802196F7CF81E0DF91CF911F910F910895CD
S1130490FC016781262F246027836C6040E00E9462
S11304A00F02089540E061E00E940F0280ED97E0A2
S11304B00E94A7030895CF93DF93EC014A871B861C
S11304C080E48C8780E593EC0E94A70360E0888138
S11304D00E94E90260E089810E94E90263E0CE01A2
S11304E00E94E90184E991E10E94A70363E0CE013F
S11304F00E94E90184E991E10E94A70363E0CE012F
S11305000E94E90186E990E00E94A70362E0CE011F
S11305100E94E9016E81606240E0CE010E940F02F8
S113052084E08F83CE010E944802CE010E945202D1
S113053082E0888740E066E0CE010E940F02DF91EE
S1130540CF910895FC0180E2808380E1818381E082
S1130550828382E0838384E0848388E08583868346
S113056020E042E060E1CF010E945B020895109216
S113057064001092610013BE15BE089515BE80E894
S11305808FBF80E0089583E087BD18BC16BC13BC00
S113059082E084BD91E095BD80936E0080E0089573
S11305A01F920F920FB60F9211248F939F938091F5
S11305B01D0190911E01019690931E0180931D01CF
S11305C081E085BB9F918F910F900FBE0F901F907C
S11305D01895611105C095B18095892385B9089551
S11305E095B1892B85B90895019739F46F3F7F4FF1
S11305F021F48EE091E00E94CA0108958FE384B94A
S113060017B884E08AB915B818B81BB813B816B867
S113061019B808958EE091E00E94A20208950E9404
S1130620B7020E94FE020E94BE020E94C302089505
S11306309DEC899F912D1124969596959695FB0195
S11306409183990F292F220F220F920F891B8083E8
S113065008951F93CF93DF9300D0CDB7DEB7182F43
S113066065E071E08EE091E00E94330219821A8203
S1130670BE016F5F7F4F812F0E9418036A818EE055
S113068091E00E942D0269818EE091E00E942D028A
S11306900F900F90DF91CF911F9108951F93CF93E7
S11306A0DF9300D0CDB7DEB7182F19821A826AE023
S11306B071E08EE091E00E943302BE016F5F7F4FD4
S11306C0812F0E9418036A818EE091E00E942D021E
S11306D069818EE091E00E942D020F900F90DF91CE
S11306E0CF911F910895CF93DF9300D0CDB7DEB79C
S11306F019821A82BE016F5F7F4F0E9418036AE05D
S113070071E08EE091E00E9433026A818EE091E014
S11307100E942D0269818EE091E00E942D020F90CB
S11307200F90DF91CF9108958EE091E00E945202E4
S113073008956CE071E08EE091E00E943302089528
S11307406FEF7FEF81E090E00E94F4020895109231
S11307501E0110921D0120911D0130911E012817C8
S11307603907C8F30895EE0FFF1F0590F491E02DAB
S10907700994F894FFCF88
S1110776544553540020202020003A003C003B
S9030000FC
