S0130000707362436C6F636B4743432E7372656313
S11300000C9435000C945D000C945D000C945D0020
S11300100C9416010C945D000C945D000C945D002E
S11300200C945D000C945D000C945D000C945D00D8
S11300300C945D000C9414010C9475020C945D00F6
S11300400C945D000C945D000C945D000C945D00B8
S11300500C945D000C945D000C945D000C945D00A8
S11300600C945D000C945D003A0311241FBECFEF85
S1130070D8E0DEBFCDBF11E0A0E0B1E0E2EAF6E0F7
S113008002C005900D92AC30B107D9F721E0ACE085
S1130090B1E001C01D92AD31B207E1F710E0C5E354
S11300A0D0E004C02197FE010E944903C433D10764
S11300B0C9F70E94D7000C944F030C94000077C03A
S11300C0000000000000B2C0000000000000ACC04E
S11300D0000000000000000000000000000000001C
S11300E0000000000000000000000000000000000C
S11300F000000000000000000000000000000000FC
S113010000000000000000000000000000000000EB
S113011000000000000000000000000000000000DB
S113012000000000000000000000000000000000CB
S113013000000000000000000000000000000000BB
S113014000000000000000000000000000000000AB
S1130150000000000000000000000000000000009B
S1130160000000000000000000000000000000008B
S1130170000000000000000000000000000000007B
S1130180000000000000000000000000000000006B
S1130190000000000000000000000000000000005B
S11301A00000000000000000000000000000DCD19E
S11301B0D6D104E00AB900E05A98F7E4F7B9F0950B
S11301C0F6B9F2E0F0936800F8E3F0936C00F4E021
S11301D0F0938100F1E0F0936F0078941127DD270C
S11301E0CC2743D2812FDAD100008D2F02D2000018
S11301F08C2F20D20000552700FD20C001FD18C01F
S1130200FBCF503021F4CB3319F0C39508950895F2
S1130210CC27DB3311F0D3950895DD27173111F086
S11302201395089511270895026018950160189593
S113023047D0E7DF0D7F5030F9F637C046D00E7F48
S1130240359B05C0349B08C0339B1AC02EC0539500
S1130250533009F45527D0CF513031F4C39530D001
S1130260CC3319F5CC2721C0523029F4D395DC3393
S1130270E1F4DD271AC013951831B9F410E015C064
S1130280513031F4C03011F4CBE30FC0CA950DC026
S1130290523031F4D03011F4DBE307C0DA9505C0F5
S11302A0103011F417E101C01A95DFD1812F00003D
S11302B075D18D2F00009DD18C2FBCD100009CCF17
S11302C011F05A9808955A9A089570E280E49AE0D9
S11302D09A95F1F78A95D9F77A95C1F70895089513
S11302E0CF93DF93EC0160E089810E948E0281E06C
S11302F090E00E94410361E089810E948E0281E0C6
S113030090E00E94410360E089810E948E0284E6AD
S113031090E00E944103DF91CF910895FF920F93E3
S11303201F93CF93DF938C01F62EC0E0D0E0C4304E
S1130330D1058CF46F2D70E00C2E02C07595679575
S11303400A94E2F76170F801EC0FFD1F82810E94AC
S11303508E022196ECCFC8010E947001DF91CF91EB
S11303601F910F91FF9008951F93CF93DF93EC019A
S1130370162F642F88810E948E02612F70E075957C
S11303806795759567957595679575956795CE018C
S11303900E948E01612FCE010E948E01DF91CF91C8
S11303A01F910895605D41E00E94B40181E00895C9
S11303B00F931F93CF93DF938C01EB016881662326
S11303C031F041E0C8010E94B4012196F7CF81E0E9
S11303D0DF91CF911F910F910895FC016781262F22
S11303E0246027836C6040E00E94B401089540E0DB
S11303F061E00E94B40180ED97E00E9441030895FA
S1130400CF93DF93EC014A871B8680E48C8780E5D9
S113041093EC0E94410360E088810E948E0260E0B8
S113042089810E948E0263E0CE010E948E0184E9DC
S113043091E10E94410363E0CE010E948E0184E9B0
S113044091E10E94410363E0CE010E948E0186E99E
S113045090E00E94410362E0CE010E948E016E8111
S1130460606240E0CE010E94B40184E08F83CE013B
S11304700E94ED01CE010E94F70182E0888740E0EE
S113048066E0CE010E94B401DF91CF910895FC0192
S113049080E2808380E1818381E0828382E08383C0
S11304A084E0848388E08583868320E042E060E101
S11304B0CF010E940002089510926400109261001E
S11304C013BE15BE089515BE80E88FBF80E0089561
S11304D083E087BD18BC16BC13BC82E084BD91E0E8
S11304E095BD80936E0080E008951F920F920FB621
S11304F00F9211248F939F9380911B0190911C0163
S1130500019690931C0180931B0181E085BB9F9110
S11305108F910F900FBE0F901F901895611105C019
S113052095B18095892385B9089595B1892B85B9AD
S11305300895019739F46F3F7F4F21F48CE091E0E7
S11305400E946F0108958FE384B917B884E08AB9D3
S113055015B818B81BB813B816B819B808958CE0B4
S113056091E00E94470208950E945C020E94A30247
S11305700E9463020E94680208959DEC899F912D58
S11305801124969596959695FB019183990F292FA1
S1130590220F220F920F891B808308951F93CF93FC
S11305A0DF9300D0CDB7DEB7182F65E071E08CE0A3
S11305B091E00E94D80119821A82BE016F5F7F4FB9
S11305C0812F0E94BD026A818CE091E00E94D201D9
S11305D069818CE091E00E94D2016AE071E08CE0D4
S11305E091E00E94D8010F900F90DF91CF911F915D
S11305F00895CF93DF9300D0CDB7DEB719821A8266
S1130600BE016F5F7F4F0E94BD026A818CE091E062
S11306100E94D20169818CE091E00E94D2016AE0DB
S113062071E08CE091E00E94D8010F900F90DF916F
S1130630CF910895CF93DF9300D0CDB7DEB7198261
S11306401A82BE016F5F7F4F0E94BD026A818CE0F7
S113065091E00E94D20169818CE091E00E94D20174
S11306600F900F90DF91CF9108958CE091E00E945C
S1130670F70108956FEF7FEF81E090E00E94990207
S1130680089520911B0130911C0128173907C8F3E4
S11306900895EE0FFF1F0590F491E02D0994F8944E
S10506A0FFCF86
S10F06A2544553540020202020003A004E
S9030000FC
