:100000000C9435000C945D000C945D000C945D0024
:100010000C941C010C945D000C945D000C945D002C
:100020000C945D000C945D000C945D000C945D00DC
:100030000C945D000C941A010C94A3020C945D00C6
:100040000C945D000C945D000C945D000C945D00BC
:100050000C945D000C945D000C945D000C945D00AC
:100060000C945D000C945D00730311241FBECFEF50
:10007000D8E0DEBFCDBF11E0A0E0B1E0ECE1F7E0F9
:1000800002C005900D92AE30B107D9F721E0AEE085
:10009000B1E001C01D92AF31B207E1F710E0C5E356
:1000A000D0E004C02197FE010E948603C433D1072B
:1000B000C9F70E94D7000C948C030C94000077C001
:1000C000000000000000B8C0000000000000B2C046
:1000D0000000000000000000000000000000000020
:1000E0000000000000000000000000000000000010
:1000F0000000000000000000000000000000000000
:1001000000000000000000000000000000000000EF
:1001100000000000000000000000000000000000DF
:1001200000000000000000000000000000000000CF
:1001300000000000000000000000000000000000BF
:1001400000000000000000000000000000000000AF
:10015000000000000000000000000000000000009F
:10016000000000000000000000000000000000008F
:10017000000000000000000000000000000000007F
:10018000000000000000000000000000000000006F
:10019000000000000000000000000000000000005F
:1001A00000000000000000000000000000000AD273
:1001B00004D204E00AB900E05A98F7E4F7B9F095E0
:1001C000F6B9F2E0F0936800F8E3F0936C00F4E025
:1001D000F0938100F1E0F0936F00F0E0F093850080
:1001E000F093840020E078941127DD27CC276FD28C
:1001F000812F02D200008D2F24D200008C2F46D2F6
:100200000000552700FD20C001FD18C0FBCF503075
:1002100021F4CB3319F0C39508950895CC27DB332F
:1002200011F0D3950895DD27173111F01395089536
:100230001127089502601895016018956ED0E7DFC8
:100240000D7F5030F9F64AC06ED00E7F359B05C049
:10025000349B18C0339B2BC041C05395543009F4D4
:100260005527513039F0503009F0CCCFF1E0F09300
:100270006F00C8CFF0E0F0936F00F0938500F0932B
:100280008400C0CF513029F4C395CC3339F5CC2745
:1002900025C0523029F4D395DC3301F5DD271EC08B
:1002A0005330E1F413951831C9F410E017C0513000
:1002B00031F4C03011F4CBE311C0CA950FC05230F5
:1002C00031F4D03011F4DBE309C0DA9507C05330C4
:1002D00029F4103011F417E101C01A95F0E0F09301
:1002E0006C00F0E0F4D1812F000086D1533079F01A
:1002F0008D2F0000A6D1523061F08C2FC7D1513024
:1003000051F00000F8E3F0936C00F1E07BCFE4D112
:10031000EFCFE2D1F2CFE0D1F4CF5A9B02C05A988E
:1003200008955A9A089570E280E49AE09A95F1F758
:100330008A95D9F77A95C1F708950895CF93DF93F9
:10034000EC0160E089810E94BC0281E090E00E94A3
:100350007A0361E089810E94BC0281E090E00E9402
:100360007A0360E089810E94BC0284E690E00E94EA
:100370007A03DF91CF910895FF920F931F93CF934C
:10038000DF938C01F62EC0E0D0E0C430D1058CF4B0
:100390006F2D70E00C2E02C0759567950A94E2F7F8
:1003A0006170F801EC0FFD1F82810E94BC02219652
:1003B000ECCFC8010E949E01DF91CF911F910F9158
:1003C000FF9008951F93CF93DF93EC01162F642FB6
:1003D00088810E94BC02612F70E0759567957595C4
:1003E00067957595679575956795CE010E94BC01D7
:1003F000612FCE010E94BC01DF91CF911F91089522
:10040000605D41E00E94E20181E008950F931F9337
:10041000CF93DF938C01EB016881662331F041E0DB
:10042000C8010E94E2012196F7CF81E0DF91CF91D0
:100430001F910F910895FC016781262F2460278367
:100440006C6040E00E94E201089540E061E00E949B
:10045000E20180ED97E00E947A030895CF93DF9345
:10046000EC014A871B8680E48C8780E593EC0E9430
:100470007A0360E088810E94BC0260E089810E946A
:10048000BC0263E0CE010E94BC0184E991E10E94BC
:100490007A0363E0CE010E94BC0184E991E10E94ED
:1004A0007A0363E0CE010E94BC0186E990E00E94DD
:1004B0007A0362E0CE010E94BC016E81606240E07E
:1004C000CE010E94E20184E08F83CE010E941B02D4
:1004D000CE010E94250282E0888740E066E0CE01DE
:1004E0000E94E201DF91CF910895FC0180E28083B8
:1004F00080E1818381E0828382E0838384E084835E
:1005000088E08583868320E042E060E1CF010E949D
:100510002E020895109264001092610013BE15BE61
:10052000089515BE80E88FBF80E0089583E087BD01
:1005300018BC16BC13BC82E084BD91E095BD8093CD
:100540006E0080E008951F920F920FB60F92112453
:100550008F939F9380911D0190911E01019690931E
:100560001E0180931D0181E085BB9F918F910F90AB
:100570000FBE0F901F901895611105C095B1809521
:10058000892385B9089595B1892B85B90895019777
:1005900039F46F3F7F4F21F48EE091E00E949D017E
:1005A00008958FE384B917B884E08AB915B818B8EC
:1005B0001BB813B816B819B808958EE091E00E94E0
:1005C000750208950E948A020E94D1020E9491023F
:1005D0000E94960208959DEC899F912D1124969575
:1005E00096959695FB019183990F292F220F220F43
:1005F000920F891B808308951F93CF93DF9300D0C0
:10060000CDB7DEB7182F65E071E08EE091E00E9473
:10061000060219821A82BE016F5F7F4F812F0E94EE
:10062000EB026A818EE091E00E94000269818EE017
:1006300091E00E9400020F900F90DF91CF911F91E7
:1006400008951F93CF93DF9300D0CDB7DEB7182F57
:1006500019821A826AE071E08EE091E00E9406023F
:10066000BE016F5F7F4F812F0E94EB026A818EE097
:1006700091E00E94000269818EE091E00E940002F8
:100680000F900F90DF91CF911F910895CF93DF933B
:1006900000D0CDB7DEB719821A82BE016F5F7F4FDF
:1006A0000E94EB026AE071E08EE091E00E94060297
:1006B0006A818EE091E00E94000269818EE091E003
:1006C0000E9400020F900F90DF91CF9108958EE06D
:1006D00091E00E94250208956CE071E08EE091E0C7
:1006E0000E94060208956FEF7FEF81E090E00E9484
:1006F000C702089510921E0110921D0120911D0144
:1007000030911E0128173907C8F30895EE0FFF1F17
:0C0710000590F491E02D0994F894FFCFBF
:0E071C00544553540020202020003A003C0099
:00000001FF
