S0130000707362436C6F636B4743432E7372656313
S11300000C9435000C945D000C945D000C945D0020
S11300100C9403010C945D000C945D000C945D0041
S11300200C945D000C945D000C945D000C945D00D8
S11300300C945D000C945D000C944F020C945D00D4
S11300400C945D000C945D000C945D000C945D00B8
S11300500C945D000C945D000C945D000C945D00A8
S11300600C945D000C945D00140311241FBECFEFAB
S1130070D8E0DEBFCDBF11E0A0E0B1E0E6E5F6E0F8
S113008002C005900D92AC30B107D9F721E0ACE085
S1130090B1E001C01D92AD31B207E1F710E0C5E354
S11300A0D0E004C02197FE010E942303C433D1078A
S11300B0C9F70E94D7000C9429030C94000077C060
S11300C00000000000009FC00000000000000000CD
S11300D0000000000000000000000000000000001C
S11300E0000000000000000000000000000000000C
S11300F000000000000000000000000000000000FC
S113010000000000000000000000000000000000EB
S113011000000000000000000000000000000000DB
S113012000000000000000000000000000000000CB
S113013000000000000000000000000000000000BB
S113014000000000000000000000000000000000AB
S1130150000000000000000000000000000000009B
S1130160000000000000000000000000000000008B
S1130170000000000000000000000000000000007B
S1130180000000000000000000000000000000006B
S1130190000000000000000000000000000000005B
S11301A00000000000000000000000000000B6D1C4
S11301B0B0D104E00AB900E05A98A7E4A7B9A09521
S11301C0A6B9A2E0A0936800A8E3A0936C00789479
S11301D091E084E1482FBCD188E2582FE4D189E032
S11301E0692D02D2FFCF6B3311F063950895662712
S11301F05B3311F0539508955527473111F043951A
S1130200089544270895359901C018953AD09395D7
S1130210933009F499271895903029F463956C3339
S113022044F1662726C0913029F453955C330CF1D0
S113023055271FC09230D9F043954D30D4F041E09A
S1130240903031F4603011F46BE313C06A9511C03F
S1130250913031F4503011F45BE30BC05A9509C06E
S1130260923029F0413011F44CE003C04A959927AB
S113027000C0D5D1842F6CD1852F95D1862FB4D1D0
S11302801895002319F05A9800E008955A9A01E04D
S113029008950895CF93DF93EC0160E089810E9473
S11302A0680281E090E00E941B0361E089810E9462
S11302B0680281E090E00E941B0360E089810E9453
S11302C0680284E690E00E941B03DF91CF910895B9
S11302D0FF920F931F93CF93DF938C01F62EC0E010
S11302E0D0E0C430D1058CF46F2D70E00C2E02C028
S11302F0759567950A94E2F76170F801EC0FFD1F9C
S113030082810E9468022196ECCFC8010E944A01B2
S1130310DF91CF911F910F91FF9008951F93CF9379
S1130320DF93EC01162F642F88810E946802612FED
S113033070E075956795759567957595679575954D
S11303406795CE010E946801612FCE010E94680169
S1130350DF91CF911F910895605D41E00E948E016D
S113036081E008950F931F93CF93DF938C01EB01EA
S11303706881662331F041E0C8010E948E01219614
S1130380F7CF81E0DF91CF911F910F910895FC0188
S11303906781262F246027836C6040E00E948E01D1
S11303A0089540E061E00E948E0180ED97E00E9494
S11303B01B030895CF93DF93EC014A871B8680E4E7
S11303C08C8780E593EC0E941B0360E088810E9487
S11303D0680260E089810E94680263E0CE010E94A5
S11303E0680184E991E10E941B0363E0CE010E944D
S11303F0680184E991E10E941B0363E0CE010E943D
S1130400680186E990E00E941B0362E0CE010E942D
S113041068016E81606240E0CE010E948E0184E03A
S11304208F83CE010E94C701CE010E94D10182E0D8
S1130430888740E066E0CE010E948E01DF91CF9173
S11304400895FC0180E2808380E1818381E08283DE
S113045082E0838384E0848388E08583868320E04C
S113046042E060E1CF010E94DA0108951092640035
S11304701092610013BE15BE089515BE80E88FBFAB
S113048080E0089583E087BD18BC16BC13BC82E0ED
S113049084BD91E095BD80936E0080E008951F9225
S11304A00F920FB60F9211248F939F9380911B018B
S11304B090911C01019690931C0180931B0181E093
S11304C085BB9F918F910F900FBE0F901F90189531
S11304D0611105C095B18095892385B9089595B1B9
S11304E0892B85B90895019739F46F3F7F4F21F423
S11304F08CE091E00E94490108958FE384B917B814
S113050084E08AB915B818B81BB813B816B819B866
S113051008958CE091E00E94210208950E94360221
S11305200E947D020E943D020E94420208959DECB9
S1130530899F912D1124969596959695FB0191830B
S1130540990F292F220F220F920F891B8083089560
S11305501F93CF93DF9300D0CDB7DEB7182F65E09C
S113056071E08CE091E00E94B20119821A82BE010E
S11305706F5F7F4F812F0E9497026A818CE091E028
S11305800E94AC0169818CE091E00E94AC016AE0B8
S113059071E08CE091E00E94B2010F900F90DF9126
S11305A0CF911F910895CF93DF9300D0CDB7DEB7DD
S11305B019821A82BE016F5F7F4F0E9497026A817F
S11305C08CE091E00E94AC0169818CE091E00E9492
S11305D0AC016AE071E08CE091E00E94B2010F90FE
S11305E00F90DF91CF910895CF93DF9300D0CDB7D3
S11305F0DEB719821A82BE016F5F7F4F0E94970295
S11306006A818CE091E00E94AC0169818CE091E008
S11306100E94AC010F900F90DF91CF9108958CE070
S113062091E00E94D10108956FEF7FEF81E090E0A7
S11306300E947302089520911B0130911C01281718
S11306403907C8F30895EE0FFF1F0590F491E02DCC
S10906500994F894FFCFA9
S10F0656544553540020202020003A009A
S9030000FC
