S0130000707362436C6F636B4743432E7372656313
S11300000C9435000C945D000C945D000C945D0020
S11300100C9407010C945D000C945D000C945D003D
S11300200C945D000C945D000C945D000C945D00D8
S11300300C945D000C945D000C9464020C945D00BF
S11300400C945D000C945D000C945D000C945D00B8
S11300500C945D000C945D000C945D000C945D00A8
S11300600C945D000C945D00290311241FBECFEF96
S1130070D8E0DEBFCDBF11E0A0E0B1E0E0E8F6E0FB
S113008002C005900D92AC30B107D9F721E0ACE085
S1130090B1E001C01D92AD31B207E1F710E0C5E354
S11300A0D0E004C02197FE010E943803C433D10775
S11300B0C9F70E94D7000C943E030C94000077C04B
S11300C0000000000000A3C00000000000000000C9
S11300D0000000000000000000000000000000001C
S11300E0000000000000000000000000000000000C
S11300F000000000000000000000000000000000FC
S113010000000000000000000000000000000000EB
S113011000000000000000000000000000000000DB
S113012000000000000000000000000000000000CB
S113013000000000000000000000000000000000BB
S113014000000000000000000000000000000000AB
S1130150000000000000000000000000000000009B
S1130160000000000000000000000000000000008B
S1130170000000000000000000000000000000007B
S1130180000000000000000000000000000000006B
S1130190000000000000000000000000000000005B
S11301A00000000000000000000000000000CBD1AF
S11301B0C5D104E00AB900E05A9884E1482FDDD1A2
S11301C088E2582F05D289E0692D23D2A7E4A7B984
S11301D0A095A6B97727A2E0A0936800A8E3A0930E
S11301E06C0030E016B199277894FFCF6B3311F08F
S11301F06395089566275B3311F053950895552749
S11302004C3011F04395089541E070950895A6B1DE
S1130210212F1A2F25FDA5FF07C024FDA4FF06C02A
S113022023FDA3FF05C006C031E005C032E008C0CD
S113023033E01BC018959395933009F499271895CA
S113024035D0903029F463956C3334F1662724C09B
S1130250913029F453955C33FCF055271DC092303E
S113026019F543954D30C4F041E0903031F46030DD
S113027011F46BE311C06A950FC0913031F4503022
S113028011F45BE309C05A9507C0923069F4413018
S113029011F44CE001C04A95D7D1842F6ED1852F3B
S11302A097D1862FB6D11895AFDF1895002319F092
S11302B05A9800E008955A9A01E008950895CF935A
S11302C0DF93EC0160E089810E947D0281E090E08F
S11302D00E94300361E089810E947D0281E090E008
S11302E00E94300360E089810E947D0284E690E0F0
S11302F00E943003DF91CF910895FF920F931F93D3
S1130300CF93DF938C01F62EC0E0D0E0C430D1054A
S11303108CF46F2D70E00C2E02C0759567950A94CD
S1130320E2F76170F801EC0FFD1F82810E947D02EB
S11303302196ECCFC8010E945F01DF91CF911F91FC
S11303400F91FF9008951F93CF93DF93EC01162F25
S1130350642F88810E947D02612F70E075956795F6
S1130360759567957595679575956795CE010E9406
S11303707D01612FCE010E947D01DF91CF911F91FC
S11303800895605D41E00E94A30181E008950F9308
S11303901F93CF93DF938C01EB016881662331F0C7
S11303A041E0C8010E94A3012196F7CF81E0DF91CB
S11303B0CF911F910F910895FC016781262F24602E
S11303C027836C6040E00E94A301089540E061E04F
S11303D00E94A30180ED97E00E9430030895CF931B
S11303E0DF93EC014A871B8680E48C8780E593ECDD
S11303F00E94300360E088810E947D0260E0898170
S11304000E947D0263E0CE010E947D0184E991E1B6
S11304100E94300363E0CE010E947D0184E991E1F2
S11304200E94300363E0CE010E947D0186E990E0E2
S11304300E94300362E0CE010E947D016E81606201
S113044040E0CE010E94A30184E08F83CE010E948C
S1130450DC01CE010E94E60182E0888740E066E08C
S1130460CE010E94A301DF91CF910895FC0180E2A7
S1130470808380E1818381E0828382E0838384E0DE
S1130480848388E08583868320E042E060E1CF01B5
S11304900E94EF010895109264001092610013BE4F
S11304A015BE089515BE80E88FBF80E0089583E0EF
S11304B087BD18BC16BC13BC82E084BD91E095BD19
S11304C080936E0080E008951F920F920FB60F92F2
S11304D011248F939F9380911B0190911C0101968D
S11304E090931C0180931B0181E085BB9F918F91A8
S11304F00F900FBE0F901F901895611105C095B114
S11305008095892385B9089595B1892B85B9089576
S1130510019739F46F3F7F4F21F48CE091E00E9402
S11305205E0108958FE384B917B884E08AB915B8D9
S113053018B81BB813B816B819B808958CE091E030
S11305400E94360208950E944B020E9492020E9469
S113055052020E94570208959DEC899F912D112407
S1130560969596959695FB019183990F292F220FC5
S1130570220F920F891B808308951F93CF93DF93DB
S113058000D0CDB7DEB7182F65E071E08CE091E0C4
S11305900E94C70119821A82BE016F5F7F4F812FAB
S11305A00E94AC026A818CE091E00E94C1016981E1
S11305B08CE091E00E94C1016AE071E08CE091E07E
S11305C00E94C7010F900F90DF91CF911F91089562
S11305D0CF93DF9300D0CDB7DEB719821A82BE0164
S11305E06F5F7F4F0E94AC026A818CE091E00E94B1
S11305F0C10169818CE091E00E94C1016AE071E06F
S11306008CE091E00E94C7010F900F90DF91CF9191
S11306100895CF93DF9300D0CDB7DEB719821A8245
S1130620BE016F5F7F4F0E94AC026A818CE091E053
S11306300E94C10169818CE091E00E94C1010F9088
S11306400F90DF91CF9108958CE091E00E94E60134
S113065008956FEF7FEF81E090E00E948802089593
S113066020911B0130911C0128173907C8F3089504
S1130670EE0FFF1F0590F491E02D0994F894FFCF3D
S10F0680544553540020202020003A0070
S9030000FC
