:100000000C9435000C945D000C945D000C945D0024
:100010000C9403010C945D000C945D000C945D0045
:100020000C945D000C945D000C945D000C945D00DC
:100030000C945D000C945D000C9453020C945D00D4
:100040000C945D000C945D000C945D000C945D00BC
:100050000C945D000C945D000C945D000C945D00AC
:100060000C945D000C945D00180311241FBECFEFAB
:10007000D8E0DEBFCDBF11E0A0E0B1E0EEE5F6E0F4
:1000800002C005900D92AC30B107D9F721E0ACE089
:10009000B1E001C01D92AD31B207E1F710E0C5E358
:1000A000D0E004C02197FE010E942703C433D1078A
:1000B000C9F70E94D7000C942D030C94000077C060
:1000C0000000000000009FC00000000000000000D1
:1000D0000000000000000000000000000000000020
:1000E0000000000000000000000000000000000010
:1000F0000000000000000000000000000000000000
:1001000000000000000000000000000000000000EF
:1001100000000000000000000000000000000000DF
:1001200000000000000000000000000000000000CF
:1001300000000000000000000000000000000000BF
:1001400000000000000000000000000000000000AF
:10015000000000000000000000000000000000009F
:10016000000000000000000000000000000000008F
:10017000000000000000000000000000000000007F
:10018000000000000000000000000000000000006F
:10019000000000000000000000000000000000005F
:1001A0000000000000000000000000000000BAD1C4
:1001B000B4D104E00AB900E05A98A7E4A7B9A09521
:1001C000A6B9A2E0A0936800A8E3A0936C0078947D
:1001D00091E084E1482FC0D188E2582FE8D189E02E
:1001E000692D06D2FFCF6B3311F063950895662712
:1001F0005B3311F0539508955527473111F043951E
:10020000089544270895359B05C0349B09C0339B4E
:100210001BC018953AD09395933009F499271895F7
:10022000903029F463956C3344F1662726C09130F1
:1002300029F453955C330CF155271FC09230D9F047
:1002400043954D30D4F041E0903031F4603011F4FA
:100250006BE313C06A9511C0913031F4503011F442
:100260005BE30BC05A9509C0923029F0413011F47C
:100270004CE003C04A95992700C0D5D1842F6CD19A
:10028000852F95D1862FB4D11895002319F05A984F
:1002900000E008955A9A01E008950895CF93DF93FE
:1002A000EC0160E089810E946C0281E090E00E9494
:1002B0001F0361E089810E946C0281E090E00E944E
:1002C0001F0360E089810E946C0284E690E00E9436
:1002D0001F03DF91CF910895FF920F931F93CF9348
:1002E000DF938C01F62EC0E0D0E0C430D1058CF451
:1002F0006F2D70E00C2E02C0759567950A94E2F799
:100300006170F801EC0FFD1F82810E946C02219642
:10031000ECCFC8010E944E01DF91CF911F910F9148
:10032000FF9008951F93CF93DF93EC01162F642F56
:1003300088810E946C02612F70E0759567957595B4
:1003400067957595679575956795CE010E946C01C7
:10035000612FCE010E946C01DF91CF911F91089512
:10036000605D41E00E94920181E008950F931F9328
:10037000CF93DF938C01EB016881662331F041E07C
:10038000C8010E9492012196F7CF81E0DF91CF91C1
:100390001F910F910895FC016781262F2460278308
:1003A0006C6040E00E949201089540E061E00E948C
:1003B000920180ED97E00E941F030895CF93DF9391
:1003C000EC014A871B8680E48C8780E593EC0E94D1
:1003D0001F0360E088810E946C0260E089810E94B6
:1003E0006C0263E0CE010E946C0184E991E10E94FD
:1003F0001F0363E0CE010E946C0184E991E10E9439
:100400001F0363E0CE010E946C0186E990E00E9428
:100410001F0362E0CE010E946C016E81606240E0C9
:10042000CE010E94920184E08F83CE010E94CB0115
:10043000CE010E94D50182E0888740E066E0CE01CF
:100440000E949201DF91CF910895FC0180E28083A8
:1004500080E1818381E0828382E0838384E08483FE
:1004600088E08583868320E042E060E1CF010E943E
:10047000DE010895109264001092610013BE15BE53
:10048000089515BE80E88FBF80E0089583E087BDA2
:1004900018BC16BC13BC82E084BD91E095BD80936E
:1004A0006E0080E008951F920F920FB60F921124F4
:1004B0008F939F9380911B0190911C0101969093C3
:1004C0001C0180931B0181E085BB9F918F910F9050
:1004D0000FBE0F901F901895611105C095B18095C2
:1004E000892385B9089595B1892B85B90895019718
:1004F00039F46F3F7F4F21F48CE091E00E944D0171
:1005000008958FE384B917B884E08AB915B818B88C
:100510001BB813B816B819B808958CE091E00E9482
:10052000250208950E943A020E9481020E9441021F
:100530000E94460208959DEC899F912D1124969565
:1005400096959695FB019183990F292F220F220FE3
:10055000920F891B808308951F93CF93DF9300D060
:10056000CDB7DEB7182F65E071E08CE091E00E9416
:10057000B60119821A82BE016F5F7F4F812F0E94E0
:100580009B026A818CE091E00E94B00169818CE05D
:1005900091E00E94B0016AE071E08CE091E00E947D
:1005A000B6010F900F90DF91CF911F910895CF93D7
:1005B000DF9300D0CDB7DEB719821A82BE016F5F1C
:1005C0007F4F0E949B026A818CE091E00E94B00103
:1005D00069818CE091E00E94B0016AE071E08CE0FA
:1005E00091E00E94B6010F900F90DF91CF91089596
:1005F000CF93DF9300D0CDB7DEB719821A82BE0148
:100600006F5F7F4F0E949B026A818CE091E00E94A5
:10061000B00169818CE091E00E94B0010F900F90D1
:10062000DF91CF9108958CE091E00E94D50108956B
:100630006FEF7FEF81E090E00E94770208952091B4
:100640001B0130911C0128173907C8F30895EE0FDC
:0E065000FF1F0590F491E02D0994F894FFCF60
:0C065E00544553540020202020003A0096
:00000001FF
