S0130000707362436C6F636B4743432E7372656313
S11300000C9435000C945D000C945D000C945D0020
S11300100C9417010C945D000C945D000C945D002D
S11300200C945D000C945D000C945D000C945D00D8
S11300300C945D000C9415010C9486020C945D00E4
S11300400C945D000C945D000C945D000C945D00B8
S11300500C945D000C945D000C945D000C945D00A8
S11300600C945D000C945D00560311241FBECFEF69
S1130070D8E0DEBFCDBF11E0A0E0B1E0EAEDF6E0EC
S113008002C005900D92AE30B107D9F721E0AEE081
S1130090B1E001C01D92AF31B207E1F710E0C5E352
S11300A0D0E004C02197FE010E946503C433D10748
S11300B0C9F70E94D7000C946B030C94000077C01E
S11300C0000000000000B3C0000000000000ADC04C
S11300D0000000000000000000000000000000001C
S11300E0000000000000000000000000000000000C
S11300F000000000000000000000000000000000FC
S113010000000000000000000000000000000000EB
S113011000000000000000000000000000000000DB
S113012000000000000000000000000000000000CB
S113013000000000000000000000000000000000BB
S113014000000000000000000000000000000000AB
S1130150000000000000000000000000000000009B
S1130160000000000000000000000000000000008B
S1130170000000000000000000000000000000007B
S1130180000000000000000000000000000000006B
S1130190000000000000000000000000000000005B
S11301A00000000000000000000000000000EDD18D
S11301B0E7D104E00AB900E05A98F7E4F7B9F095FA
S11301C0F6B9F2E0F0936800F8E3F0936C00F4E021
S11301D0F0938100F1E0F0936F0020E07894112710
S11301E0DD27CC2757D2812FEAD100008D2F0CD2E6
S11301F000008C2F2ED20000552700FD20C001FDE9
S113020018C0FBCF503021F4CB3319F0C3950895B7
S11302100895CC27DB3311F0D3950895DD271731EA
S113022011F013950895112708950260189501603F
S1130230189556D0E7DF0D7F5030F9F63AC056D006
S11302400E7F359B05C0349B08C0339B1BC031C057
S11302505395543009F45527D0CF513029F4C39520
S1130260CC3339F5CC2725C0523029F4D395DC336F
S113027001F5DD271EC05330E1F413951831C9F49C
S113028010E017C0513031F4C03011F4CBE311C089
S1130290CA950FC0523031F4D03011F4DBE309C0F9
S11302A0DA9507C0533029F4103011F417E101C076
S11302B01A95F0D1812F000082D1533059F08D2F3F
S11302C00000A2D1523041F08C2FC3D1513031F013
S11302D0000093CFE4D1F3CFE2D1F6CFE0D1F8CF51
S11302E05A9B02C05A9808955A9A089570E280E47D
S11302F09AE09A95F1F78A95D9F77A95C1F7089516
S11303000895CF93DF93EC0160E089810E949F02FE
S113031081E090E00E945D0361E089810E949F0278
S113032081E090E00E945D0360E089810E949F0269
S113033084E690E00E945D03DF91CF910895FF92DF
S11303400F931F93CF93DF938C01F62EC0E0D0E080
S1130350C430D1058CF46F2D70E00C2E02C075955D
S113036067950A94E2F76170F801EC0FFD1F828132
S11303700E949F022196ECCFC8010E948101DF9167
S1130380CF911F910F91FF9008951F93CF93DF9307
S1130390EC01162F642F88810E949F02612F70E068
S11303A07595679575956795759567957595679531
S11303B0CE010E949F01612FCE010E949F01DF9117
S11303C0CF911F910895605D41E00E94C50181E0D5
S11303D008950F931F93CF93DF938C01EB016881F2
S11303E0662331F041E0C8010E94C5012196F7CF90
S11303F081E0DF91CF911F910F910895FC016781F6
S1130400262F246027836C6040E00E94C501089574
S113041040E061E00E94C50180ED97E00E945D0329
S11304200895CF93DF93EC014A871B8680E48C8781
S113043080E593EC0E945D0360E088810E949F0246
S113044060E089810E949F0263E0CE010E949F01C7
S113045084E991E10E945D0363E0CE010E949F0163
S113046084E991E10E945D0363E0CE010E949F0153
S113047086E990E00E945D0362E0CE010E949F0144
S11304806E81606240E0CE010E94C50184E08F83EA
S1130490CE010E94FE01CE010E94080282E08887FC
S11304A040E066E0CE010E94C501DF91CF9108953E
S11304B0FC0180E2808380E1818381E0828382E0A9
S11304C0838384E0848388E08583868320E042E01C
S11304D060E1CF010E94110208951092640010920D
S11304E0610013BE15BE089515BE80E88FBF80E07D
S11304F0089583E087BD18BC16BC13BC82E084BD9C
S113050091E095BD80936E0080E008951F920F9254
S11305100FB60F9211248F939F9380911D01909198
S11305201E01019690931E0180931D0181E085BBFD
S11305309F918F910F900FBE0F901F90189561118E
S113054005C095B18095892385B9089595B1892B06
S113055085B90895019739F46F3F7F4F21F48EE0F8
S113056091E00E94800108958FE384B917B884E074
S11305708AB915B818B81BB813B816B819B80895BD
S11305808EE091E00E94580208950E946D020E943C
S1130590B4020E9474020E94790208959DEC899F1E
S11305A0912D1124969596959695FB019183990F1B
S11305B0292F220F220F920F891B808308951F93E6
S11305C0CF93DF9300D0CDB7DEB7182F65E071E08D
S11305D08EE091E00E94E90119821A82BE016F5FE8
S11305E07F4F812F0E94CE026A818EE091E00E94AB
S11305F0E30169818EE091E00E94E3010F900F9086
S1130600DF91CF911F9108951F93CF93DF9300D073
S1130610CDB7DEB7182F19821A826AE071E08EE036
S113062091E00E94E901BE016F5F7F4F812F0E941C
S1130630CE026A818EE091E00E94E30169818EE03E
S113064091E00E94E3010F900F90DF91CF911F91F1
S11306500895CF93DF9300D0CDB7DEB719821A8205
S1130660BE016F5F7F4F0E94CE026AE071E08EE0B0
S113067091E00E94E9016A818EE091E00E94E30129
S113068069818EE091E00E94E3010F900F90DF9169
S1130690CF9108958EE091E00E94080208956CE0E5
S11306A071E08EE091E00E94E90108956FEF7FEF21
S11306B081E090E00E94AA02089520911D013091EA
S11306C01E0128173907C8F30895EE0FFF1F059080
S10D06D0F491E02D0994F894FFCF93
S11106DA544553540020202020003A003C00D8
S9030000FC
