:100000000C9435000C945D000C945D000C945D0024
:100010000C9406010C945D000C945D000C945D0042
:100020000C945D000C945D000C945D000C945D00DC
:100030000C945D000C945D000C9452020C945D00D5
:100040000C945D000C945D000C945D000C945D00BC
:100050000C945D000C945D000C945D000C945D00AC
:100060000C945D000C945D00170311241FBECFEFAC
:10007000D8E0DEBFCDBF11E0A0E0B1E0ECE5F6E0F6
:1000800002C005900D92AC30B107D9F721E0ACE089
:10009000B1E001C01D92AD31B207E1F710E0C5E358
:1000A000D0E004C02197FE010E942603C433D1078B
:1000B000C9F70E94D7000C942C030C94000077C061
:1000C000000000000000A2C00000000000000000CE
:1000D0000000000000000000000000000000000020
:1000E0000000000000000000000000000000000010
:1000F0000000000000000000000000000000000000
:1001000000000000000000000000000000000000EF
:1001100000000000000000000000000000000000DF
:1001200000000000000000000000000000000000CF
:1001300000000000000000000000000000000000BF
:1001400000000000000000000000000000000000AF
:10015000000000000000000000000000000000009F
:10016000000000000000000000000000000000008F
:10017000000000000000000000000000000000007F
:10018000000000000000000000000000000000006F
:10019000000000000000000000000000000000005F
:1001A0000000000000000000000000000000B9D1C5
:1001B000B3D104E00AB900E05A98A7E4A7B9A09522
:1001C000A6B9A2E0A0936800A8E3A0936C0078947D
:1001D000EE27DD27CC27FF278E2FBDD100008D2FE6
:1001E000E5D100008C2F03D20000FFCFCB3311F0FC
:1001F000C3950895CC27DB3311F0D3950895DD27FF
:10020000E73111F0E3950895EE270895359B05C079
:10021000349B08C0339B19C01895F395F33009F44B
:10022000FF271895F03031F4C3952ED0CC3311F55B
:10023000CC2720C0F13029F0D395DC33D9F4DD2769
:1002400019C0E395E831B1F4E0E0F03031F4C030AA
:1002500011F4CBE30FC0CA950DC0F13031F4D030AA
:1002600011F4DBE307C0DA9505C0E03011F4E7E1F3
:1002700001C0EA95D7D100008E2F6DD18D2F96D178
:100280008C2FB5D100001895002319F05A9800E082
:1002900008955A9A01E008950895CF93DF93EC01F1
:1002A00060E089810E946B0281E090E00E941E0361
:1002B00061E089810E946B0281E090E00E941E0350
:1002C00060E089810E946B0284E690E00E941E0338
:1002D000DF91CF910895FF920F931F93CF93DF93F8
:1002E0008C01F62EC0E0D0E0C430D1058CF46F2D27
:1002F00070E00C2E02C0759567950A94E2F7617064
:10030000F801EC0FFD1F82810E946B022196ECCF59
:10031000C8010E944D01DF91CF911F910F91FF9075
:1003200008951F93CF93DF93EC01162F642F8881DC
:100330000E946B02612F70E07595679575956795C2
:100340007595679575956795CE010E946B01612F34
:10035000CE010E946B01DF91CF911F910895605DE6
:1003600041E00E94910181E008950F931F93CF9384
:10037000DF938C01EB016881662331F041E0C80115
:100380000E9491012196F7CF81E0DF91CF911F91DB
:100390000F910895FC016781262F246027836C60EC
:1003A00040E00E949101089540E061E00E949101C7
:1003B00080ED97E00E941E030895CF93DF93EC0138
:1003C0004A871B8680E48C8780E593EC0E941E039D
:1003D00060E088810E946B0260E089810E946B026C
:1003E00063E0CE010E946B0184E991E10E941E034B
:1003F00063E0CE010E946B0184E991E10E941E033B
:1004000063E0CE010E946B0186E990E00E941E032A
:1004100062E0CE010E946B016E81606240E0CE011D
:100420000E94910184E08F83CE010E94CA01CE0117
:100430000E94D40182E0888740E066E0CE010E94FD
:100440009101DF91CF910895FC0180E2808380E1EA
:10045000818381E0828382E0838384E0848388E0F7
:100460008583868320E042E060E1CF010E94DD01C8
:100470000895109264001092610013BE15BE089595
:1004800015BE80E88FBF80E0089583E087BD18BC6B
:1004900016BC13BC82E084BD91E095BD80936E00D4
:1004A00080E008951F920F920FB60F9211248F9340
:1004B0009F9380911B0190911C01019690931C01C8
:1004C00080931B0181E085BB9F918F910F900FBEA0
:1004D0000F901F901895611105C095B180958923E3
:1004E00085B9089595B1892B85B90895019739F497
:1004F0006F3F7F4F21F48CE091E00E944C01089502
:100500008FE384B917B884E08AB915B818B81BB856
:1005100013B816B819B808958CE091E00E9424022F
:1005200008950E9439020E9480020E9440020E94A7
:10053000450208959DEC899F912D112496959695DD
:100540009695FB019183990F292F220F220F920F6D
:10055000891B808308951F93CF93DF9300D0CDB77D
:10056000DEB7182F65E071E08CE091E00E94B501E4
:1005700019821A82BE016F5F7F4F812F0E949A02FB
:100580006A818CE091E00E94AF0169818CE091E08A
:100590000E94AF016AE071E08CE091E00E94B50139
:1005A0000F900F90DF91CF911F910895CF93DF931C
:1005B00000D0CDB7DEB719821A82BE016F5F7F4FC0
:1005C0000E949A026A818CE091E00E94AF016981E9
:1005D0008CE091E00E94AF016AE071E08CE091E074
:1005E0000E94B5010F900F90DF91CF910895CF93A6
:1005F000DF9300D0CDB7DEB719821A82BE016F5FDC
:100600007F4F0E949A026A818CE091E00E94AF01C4
:1006100069818CE091E00E94AF010F900F90DF9113
:10062000CF9108958CE091E00E94D40108956FEF7E
:100630007FEF81E090E00E947602089520911B01F7
:1006400030911C0128173907C8F30895EE0FFF1FDA
:0C0650000590F491E02D0994F894FFCF80
:0C065C00544553540020202020003A0098
:00000001FF
