:020000020000FC
:02000000EFC04F
:0200100009C124
:1001E00087E487B9809586B941E055276627772748
:1001F00082E08093680088E380936C00992778946C
:10020000FFCF6B3311F06395089566275B3311F0D0
:100210005395089555274C3011F04395089541E0CA
:1002200070950895359B05C0349B08C0339B1BC057
:1002300018959395933009F499271895903029F4DF
:1002400063956C337CF066270DC0913029F453958B
:100250005C3344F0552706C09230E9F443954D30A5
:100260000CF041E01895903031F4603011F46BE3FC
:1002700011C06A950FC0913031F4503011F45BE336
:1002800009C05A9507C0923031F4413011F44CE066
:0A02900001C04A951895C3DF1895C8
:00000001FF
