:100000000C9435000C945D000C945D000C945D0024
:100010000C945D000C945D000C945D000C945D00EC
:100020000C945D000C945D000C945D000C945D00DC
:100030000C945D000C945D000C946E010C945D00BA
:100040000C945D000C945D000C945D000C945D00BC
:100050000C945D000C945D000C945D000C945D00AC
:100060000C945D000C945D002E0211241FBECFEF96
:10007000D8E0DEBFCDBF11E0A0E0B1E0EAE8F4E0F7
:1000800002C005900D92AC30B107D9F721E0ACE089
:10009000B1E001C01D92AD31B207E1F710E0C5E358
:1000A000D0E004C02197FE010E943D02C433D10775
:1000B000C9F70E945F000C9443020C9400004DD1DC
:1000C00047D184E164D182E38DD189E0ACD1FFCF07
:1000D0000895CF93DF93EC0160E089810E9487014E
:1000E00081E090E00E94350261E089810E948701F1
:1000F00081E090E00E94350260E089810E948701E2
:1001000084E690E00E943502DF91CF910895FF923E
:100110000F931F93CF93DF938C01F62EC0E0D0E0B6
:10012000C430D1058CF46F2D70E00C2E02C0759593
:1001300067950A94E2F76170F801EC0FFD1F828168
:100140000E9487012196ECCFC8010E946900DF91CF
:10015000CF911F910F91FF9008951F93CF93DF933D
:10016000EC01162F642F88810E948701612F70E0B7
:100170007595679575956795759567957595679567
:10018000CE010E948700612FCE010E948700DF917F
:10019000CF911F910895605D41E00E94AD0081E024
:1001A00008950F931F93CF93DF938C01EB01688128
:1001B000662331F041E0C8010E94AD002196F7CFDF
:1001C00081E0DF91CF911F910F910895FC0167812C
:1001D000262F246027836C6040E00E94AD000895C4
:1001E00040E061E00E94AD0080ED97E00E943502A2
:1001F0000895CF93DF93EC014A871B8680E48C87B8
:1002000080E593EC0E94350260E088810E948701BE
:1002100060E089810E94870163E0CE010E9487002F
:1002200084E991E10E94350263E0CE010E948700DB
:1002300084E991E10E94350263E0CE010E948700CB
:1002400086E990E00E94350262E0CE010E948700BC
:100250006E81606240E0CE010E94AD0084E08F8339
:10026000CE010E94E600CE010E94F00082E0888765
:1002700040E066E0CE010E94AD00DF91CF9108958D
:10028000FC0180E2808380E1818381E0828382E0DF
:10029000838384E0848388E08583868320E042E052
:1002A00060E1CF010E94F90008951092640010925D
:1002B000610013BE15BE089515BE80E88FBF80E0B3
:1002C000089583E087BD18BC16BC13BC82E084BDD2
:1002D00091E095BD80936E0080E008951F920F928B
:1002E0000FB60F9211248F939F9380911B019091D1
:1002F0001C01019690931C0180931B0181E085BB3A
:100300009F918F910F900FBE0F901F9018956111C4
:1003100005C095B18095892385B9089595B1892B3C
:1003200085B90895019739F46F3F7F4F21F48CE030
:1003300091E00E94680008958FE384B917B884E0C3
:100340008AB915B818B81BB813B816B819B80895F3
:100350008CE091E00E94400108950E9455010E94A6
:100360009C010E945C010E94610108959DEC899F9F
:10037000912D1124969596959695FB019183990F51
:10038000292F220F220F920F891B808308951F931C
:10039000CF93DF9300D0CDB7DEB7182F65E071E0C3
:1003A0008CE091E00E94D10019821A82BE016F5F39
:1003B0007F4F812F0E94B6016A818CE091E00E94FC
:1003C000CB0069818CE091E00E94CB006AE071E093
:1003D0008CE091E00E94D1000F900F90DF91CF91BF
:1003E0001F910895CF93DF9300D0CDB7DEB7198268
:1003F0001A82BE016F5F7F4F0E94B6016A818CE056
:1004000091E00E94CB0069818CE091E00E94CB00DA
:100410006AE071E08CE091E00E94D1000F900F90B3
:10042000DF91CF910895CF93DF9300D0CDB7DEB7A2
:1004300019821A82BE016F5F7F4F0E94B6016A81E6
:100440008CE091E00E94CB0069818CE091E00E94F9
:10045000CB000F900F90DF91CF9108956FEF7FEF5A
:1004600081E090E00E949201089520911B0130915B
:100470001C0128173907C8F30895EE0FFF1F0590D8
:0A048000F491E02D0994F894FFCFE9
:0C048A00544553540020202020003A006C
:00000001FF
